:020000040800F2
:10000000000400207102000873020008D11F0008DC
:1000100073020008730200087302000873020008EC
:1000200073020008730200087302000891130008AD
:1000300073020008730200087302000873020008CC
:1000400073020008730200087302000873020008BC
:100050007302000873020008012000084120000814
:1000600081200008C1200008012100084114000877
:100070006114000881140008A1140008C1140008CC
:10008000E11400080115000873020008730200085B
:10009000730200087302000873020008412100087F
:1000A000730200087302000873020008730200085C
:1000B000311E000873020008730200087302000872
:1000C000730200087302000873020008C1210008CF
:1000D000F12100087302000873020008730200088F
:1000E00081210008730200087302000873020008EF
:1000F000730200087302000873020008730200080C
:1001000073020008730200087302000873020008FB
:1001100073020008730200087302000873020008EB
:1001200073020008730200087302000873020008DB
:1001300073020008730200087302000873020008CB
:08014000F1020008F130000893
:08014800C1020008D1300008DB
:100150002DE9F04FC1F80CD0C3689D46BDE8F08F83
:1001600001F0FEF9002383F311882846A047002000
:1001700001F03EFE01F0D4F901F02AFD01F0F0F9A2
:1001800000DFFEE7000000000000000000000000AB
:1001900072B6274880F30888264880F309882648E5
:1001A0004EF60851CEF200010860022080F3148858
:1001B000BFF36F8F01F0FCF801F002F94FF05530FA
:1001C0001E491B4A91423CBF41F8040BFAE71C4907
:1001D000184A91423CBF41F8040BFAE719491A4A00
:1001E0001A4B9A423EBF51F8040B42F8040BF8E751
:1001F00000201749174A91423CBF41F8040BFAE727
:1002000001F0F6F801F0E4F8134C144DAC4203DAB7
:1002100054F8041B8847F9E702F002F8104C114D1E
:10022000AC4203DA54F8041B8847F9E701F0D8B868
:10023000000400200008002000000008000000204A
:10024000000400204851000800080020880C00200D
:10025000880C002088220020400100084801000886
:1002600048010008500100080000000000000000E4
:100270008EE700F000F8FEE700000000000000003C
:1002800053B94AB9002908BF00281CBF4FF0FF31FD
:100290004FF0FF3000F00CB8ADF1080C6DE904CE62
:1002A00004F086F9DDF804E0DDE9022304B07047CC
:1002B000704700BF000000000000000000000000C8
:1002C00010B5054C237833B9044B13B10448AFF390
:1002D00000800123237010BD880C00200000000066
:1002E0004451000800000000000000000000000071
:1002F00008B5034B1BB103490348AFF3008008BDA9
:10030000000000008C0C0020445100080000000098
:10031000202383F311880F4B5B6813F4006315D01F
:10032000EFF309834FF0807243F8042CA3F120020D
:1003300082F30988084A1168926989689268914233
:100340008CBF064A064A43F8082C704783F311888D
:10035000704700BF00ED00E0A41F002075010008F9
:100360008001000800000000000000000000000004
:1003700010B40468437B2168827B4068D9400068E0
:1003800001F00E0108420DD001FA03F36360064B41
:10039000013253F832402CB103EBC20358682346B4
:1003A00010BC184710BC7047C82000200000000097
:1003B000064B1A6B002A01DD5A6B1AB172B6044A59
:1003C000DA62FEE701225A63704700BFA41F0020D3
:1003D000A04800080000000000000000000000002D
:1003E000064B1A6B002A02DD5A6B002A03DC72B638
:1003F000034ADA62FEE700225A637047A41F002016
:10040000B0480008000000000000000000000000EC
:10041000202383F31188074B1A6B002A01DB596BE9
:1004200019B172B6044ADA62FEE701321A6381F347
:1004300011887047A41F0020C04800080000000079
:10044000202383F31188074B1A6B002A01DD596BB7
:1004500019B172B6044ADA62FEE7013A1A6381F30F
:1004600011887047A41F0020D04800080000000039
:10047000054B1A6B002A02DB5A6B002A03DC72B6AA
:10048000024ADA62FEE77047A41F0020E048000835
:10049000054B1A6B12B95A6B002A03DC72B6034A79
:1004A000DA62FEE7704700BFA41F0020F048000892
:1004B00008B5FFF7DDFF0E4B18B972B60D4ADA62C8
:1004C000FEE790F820200AB10F2A03D172B6094A3C
:1004D000DA62FEE7002280F8202082681B689968B3
:1004E0009142FBD25A68036042601060586008BDB8
:1004F000A41F0020104D00080000000000000000B4
:1005000008B5202383F31188FFF752FF90F82030BD
:100510000021052B0BD8DFE803F0030A0A081B159E
:10052000FFF75EFF81F3118808BD436A19604FF041
:10053000FF334362FFF7BCFFFFF752FF002383F353
:100540001188F1E7416AFFF793FF8B6801338B60F5
:10055000D0E9003213605A60E9E7000000000000B3
:1005600008B5FFF785FF83680146002B00680EDBA6
:1005700088420ED10133002B8B600FDC03680B60C7
:10058000596000234362BDE80840FFF791BF8842ED
:10059000F0D172B6024B034ADA62FEE708BD00BF33
:1005A000A41F0020204D00080000000000000000F3
:1005B000FEE7000000000000000000000000000056
:1005C0004FF08043DA68920704D472B6024B034AB4
:1005D000DA62FEE758637047A41F0020B04C0008A1
:1005E00070B505461C4610462C4EFFF741FF19B961
:1005F00072B62B4BF362FEE7C5E9030430464FF0B9
:10060000804250F81C4F0229536A38BF02218442AD
:100610009BB219D1C6E907553385A960D068C5E9F1
:10062000004410F0020003D072B61E4BF362FEE7E6
:100630004FF6FF74A14294BF5B181B199BB2536322
:1006400002231061D36070BD308D1B1A9BB2C91894
:10065000A36802D32468C91A0AE0994208D24FF667
:10066000FF73994294BF4018C01880B2FFF7A8FFEB
:10067000A3688B420CD363682C606B601D6065605F
:10068000A960A3685B1AA3604FF0FF337362DAE7D7
:10069000AC42DFD172B6024BF362FEE7A41F00202A
:1006A000404D0008504D0008000000000000000010
:1006B00038B5FFF7DDFEC36821491BB972B6214B7F
:1006C000CB62FEE70B4653F81C4F002584420268BC
:1006D0000AD041689A420A605160C56003D09368AD
:1006E00081680B44936038BD9A42CA615360E560EB
:1006F00003D14FF08043DD60F5E79368A0680344C1
:1007000093604FF08042088D526A121A92B293425F
:10071000E9D99C1A012C09D8931CB3F5803F0BD260
:10072000184480B2BDE83840FFF74ABF4FF6FF7269
:10073000934228BF1346F3E772B6034BCB62FEE742
:10074000A41F0020504C0008A04C0008000000002E
:10075000202383F31188FFF72BBE00000000000068
:1007600008B5FFF73DFE002383F3118808BD0000A4
:10077000104B984205D1104AD36943F00103D3616D
:1007800070470E4B984204D10B4AD36943F00203E1
:10079000F5E70B4B984204D1074AD36943F00403B1
:1007A000EDE7084B9842EBD1034AD36943F00803C5
:1007B000E5E700BF000002400038024000040240AC
:1007C00000080240000C0240000000000000000091
:1007D00008B5FFF74DFEC3681BB1BDE80840FFF741
:1007E00067BF08BD0000000000000000000000001E
:1007F00008B5FFF7ADFF03681B689847BDE80840E0
:10080000FFF7AEBF00000000000000000000000085
:10081000D0F81C31FF2B16D8D0F814315A1CC0F870
:1008200014211970D0F8142100F588739A4224BF5E
:1008300000F11003C0F81431D0F81C310133C0F8B6
:100840001C31002070470C207047000000000000A1
:10085000A0F5C870FFF7DCBF00000000000000003A
:1008600070470000000000000000000000000000D1
:100870002DE9F04385B0984601AB064600250846B1
:100880001F469DF93090B0FBF2F4844602FB140140
:1008900020460929CCB294BF3034373464B2944531
:1008A00005F1010503F8014BEDD22C4633684445B0
:1008B0001B6809D33368013D30461B687957984758
:1008C00030B9002DF6D104E049463046984718B1BA
:1008D0000C2005B0BDE8F0830134E7E7000000001C
:1008E0002DE9F04F0B46054614464FF00A0B85B034
:1008F0001E4616F9011B31B928462B685B6805B006
:10090000BDE8F04F1847252902D02B681B6866E028
:1009100093F901704FF00008302F14BF20279E1C60
:1009200016F9011BA1F13002D2B2092A03D852B242
:100930000BFB0828F4E72A2902D114F9042BF7E766
:100940002E290AD116F9011BA1F13003DBB2092BC4
:10095000F8D92A2901D10434F4E763293BD015DC06
:1009600041294DD003DC2529CFD03346C0E7532998
:1009700038D05829F9D1434610220097284654F818
:10098000041BFFF775FF0028EFD0B5E7732929D0C6
:100990001BDC642901D06929E7D1A14659F8044B31
:1009A000002C07DA2B682D2128461B689847002861
:1009B000A2D1644243460A22214628460097FFF707
:1009C00057FF002898D14C46CFE77529CDD1434633
:1009D0000A220097D2E72B6814F9041B1B682846EB
:1009E0009847D0E72768013F17F9011F09B9043478
:1009F000BBE72B6828461B6898470028F4D07BE7A4
:100A00000027D4E90093D4F8088003934FFA88FABA
:100A1000039B9F4201DB0C34A7E76FB9302319F821
:100A200007101022009328460223FFF721FF002819
:100A30007FF462AF0137EBE7B8F1000FEED02B681F
:100A4000514628461B6898470028E7D054E7000025
:100A5000D0F81021D0F81C1100F588739B1A8B4236
:100A600028BF0B46C0F820317BB1002380F8183135
:100A700043685B68DA60D0F820215A60C268126A65
:100A80001A601A6842F001021A6070470000000004
:100A900090F818310BB1FFF7DBBF70470000000082
:100AA000A0F5C870FFF7F4BF0000000000000000D0
:100AB000436859680A6822F00F020A60597B1A6875
:100AC0000E238B405360D0F81021D0E947310A44FF
:100AD0005B1A00F588718A4228BF00F11002C0F845
:100AE0001C31C0F810212BB9012380F8183103689C
:100AF0001B681847FFF7ACBF0000000000000000B3
:100B0000074A136943F0040313610222054B1A607C
:100B10001A6842F004021A6000BF00BF30BF70477D
:100B200000ED00E000700040000000000000000048
:100B300003680A465B680149184700BF004900087E
:100B400013B542F210737824C178827800884A4342
:100B5000C2EB0222B2FBF3F2B0FBF4F304FB13038B
:100B60006424C1EB0121B1FBF4F13C249BB23C3B7A
:100B7000002BB8BF5B42C3F13C035343B3FBF4F318
:100B80008A1AD2B213443B28C9B2DBB20FD97728F4
:100B90000AD9B32816D9EF2818D9B0F5967F19D2FB
:100BA00008461946134613E0084619460346002036
:100BB00061F3070063F30F2062F3174020F07F40DA
:100BC00002B010BD084611461A46EFE70846114626
:100BD0000246ECE71846E5E70000000000000000D0
:100BE0000022064B416D5B6A03F8212003EB810371
:100BF0005A709A70DA70C262704700BF08210020F4
:100C00002DE9F04100260C4D04462846FFF7E0FD93
:100C100042F21077314640F2E7304FF47A72002307
:100C2000E4FB0701FFF72CFB33460146034A284645
:100C3000BDE8F041FFF7D4BC880D0020E1100008AA
:100C40002DE9F041061D044630460D4642F210776C
:100C5000FFF7BEFD40F2E73000214FF47A72002327
:100C6000E5FB0701FFF70CFB23460146024A30462D
:100C7000BDE8F041FFF7B4BCF10700080000000038
:100C80002DE9F341C3691A899E7ADD7AADF8042013
:100C90008DF806608DF80750019C97B2C26A9442A5
:100CA00003D1012002B0BDE8F0815A680AB9C462DC
:100CB000F7E7838DA7EB030C1FFA8CFE0FFA8CFC71
:100CC0008CEAEC71A1EBEC7189B2B42988BFC1F553
:100CD000B4710EF1FF3888BF89B2B8F1B30F02D9F1
:100CE0001CF1B40F48DAB3F5B37F42D9002380F882
:100CF0002C3080F82D3090F82E309E424ED9A6EB45
:100D0000030C61454ADC013380F82E3090F82F3017
:100D10009D4247D9A5EB030C614543DC013380F8C4
:100D20002F30C36A9C42BCD0848D90F82E30A742ED
:100D30001BBF0434B2FBF4F4002401349E421ABFFA
:100D4000191DB2FBF1F1002190F82F3018BF0131CD
:100D5000A14238BF21469D421BBF0433B2FBF3F2D0
:100D600000220132914238BF1146FFF769FF00208F
:100D700098E701338385BEE70EF1B40E1FFA8EFEAD
:100D8000BEF1B30F02D9BCF1B40FB4DD23B96723B0
:100D900080F82C300123ACE7013BEBE79E42B5D253
:100DA000013BB1E79D42BCD2013BB8E70000000027
:100DB00070B5FFF75DFB0369044613B10430FFF71C
:100DC00007FD4FF0FF350026E3691A68042AFDD8B5
:100DD000DFE802F0030D25311700236820469B68E9
:100DE000984700282FD0E3690C33E361ECE759689A
:100DF0000C33E3610029E7D02046BDE87040FFF7DF
:100E00001FBF626A013204BF5A686262626A0AB92D
:100E10006562E9E7A369013AE3616262D4E70C2104
:100E20005A68A36901FB0233E361A36A0BB1204650
:100E300098470121E0E7A36A0BB120469847236A4F
:100E400013B9C4E9063370BDC4E90633656226628E
:100E5000BAE70000000000000000000000000000F1
:100E600001230376C36903B11847704700000000EF
:100E7000F0B5324CA04245D1314DEC6944F001044B
:100E8000EC61032407684D00AC40E64327EA040404
:100E9000046002240768AC403C43046001248C4099
:100EA000002A47D1426822EA04024260C268AB408D
:100EB0003240C260C268072943EA0203C360836804
:100EC00006EA03064FF002038660826803FA05F320
:100ED00043EA02038ABFA1F108028A0092000729AF
:100EE00083608CBF042300230F211844036A9140C0
:100EF00023EA010303629DF81430016A93400B4317
:100F00000362F0BD0F4CA04204D10D4DEC6944F0DA
:100F10000204B5E70C4CA04204D1094DEC6944F041
:100F20000404ADE7094CA042ABD1054DEC6944F097
:100F30000804A5E7426814434460B7E70000024094
:100F4000003802400004024000080240000C024049
:100F5000A0F111031949584258412DE9F04101EB24
:100F6000001101240820024623460E8931F813702F
:100F70004FEA4308BE421CD801EB4205AE4635F8A5
:100F800002C9664517D39342DFBF013302F1FF3236
:100F900021F808C0AEF80070032AD8BF1C46042B05
:100FA000C8BF10469A42E1DA8442DCDB0889BDE81A
:100FB000F0810133DAE7013AE0E700BFA40C00203A
:100FC000074A136843F00103136042F20F7311687C
:100FD000890703D4013BFAD10120704700207047F4
:100FE0000038024000000000000000000000000087
:100FF000134910B5FFF73CFAD1F8AC40002C1CDDCA
:10100000FFF736FA013CD1F89430C1F8AC400468DF
:1010100003F10802C1F894201C604068586001F197
:1010200090039A422CBF0B46D1F894300548C1F882
:101030009430FFF795FA002010BD0220FCE700BFB6
:10104000D80C0020700D00200000000000000000FF
:10105000104B07B51B68684659680A6822F00F02F2
:101060000A60597B1A680E238B40536000220A4B9A
:101070009A600A4A136823F001031360FFF768FBC4
:1010800003238DF80530FFF7B3FF03B05DF804EBE1
:10109000FFF766BB881F0020002401400038024093
:1010A00073B50446037F68468DF80530FFF7A0FF4F
:1010B000637F012B0DD1A669251D2846FFF788FB0C
:1010C000234631462846044A02B0BDE87040FFF787
:1010D00087BA02B070BD00BFF10700080000000031
:1010E00007B5FFF735FB154A1378012B18D0022BF3
:1010F00005D113490B68FF2B06D10023137003B0F1
:101100005DF804EBFFF72CBB01334FF4E1700B608B
:101110009BB20433B0FBF3F00130FFF771FDEEE753
:1011200007490B683BB91370062368468DF80530F4
:10113000FFF75EFFE3E7013BE7E700BFA40D0020F8
:10114000A00D0020000000000000000000000000D2
:10115000814230B518D0013810F8015F11F8014B09
:10116000A5F14102192A6BB262B2A4F1410498BF01
:101170002033192C98BF20329B1A01D1002DEBD1BE
:10118000B3FA83F0400930BD0023F9E70000000006
:1011900010B50E4CFFF77CF9A16981F8200020689A
:1011A00003685C6023600123A06180F82030EFF3C6
:1011B0000983CA69243B9A4203D972B6044BE3629D
:1011C000FEE7BDE81040FEF7C3BF00BFA41F00202C
:1011D00010490008000000000000000000000000AE
:1011E00038B5184DFFF754F92A680446A869AA4291
:1011F000836806D09268934203D272B6124BEB62B8
:10120000FEE700226262A2689A4204D82046BDE846
:101210003840FFF74DB9FFF74BF901230146AC61A8
:1012200084F82030EFF30983C269243B9A4203D942
:1012300072B6064BEB62FEE72046BDE83840FEF78B
:1012400087BF00BFA41F0020404C000810490008C1
:101250000EB403B503AA52F8041B00F5C87001923E
:10126000FFF73EFB02B05DF804EB03B070470000EF
:10127000A0F5CA70FFF7ECBF0000000000000000FE
:101280000FB407B5054905AA05480192FFF728FBE9
:1012900003B05DF804EB04B0704700BF20490008BC
:1012A000380F0020000000000000000000000000D7
:1012B0000EB4F3B50546042408AB124E0093013C6E
:1012C00014F0FF0416D0009B31461A1D00201F6841
:1012D000009202F0E5FA286790F9003083B100220D
:1012E00001A902F095F9019B93F900300BB9387010
:1012F000E5E70D24204602B0BDE8F04003B070479A
:101300000B24F7E73049000800000000000000004F
:1013100000232DE9F0411C4C1C4F656823763235C3
:10132000D4E90968B04517D1E2685368196821F01B
:101330000F011960507B11680E2282404A6062687A
:10134000DA6022685A60A26812691A601A6842F06C
:1013500001021A60BDE8F08171780422284607EB8B
:10136000810102F0CDFB3178042207EB8101E81CFA
:1013700002F0C6FBB178A81D042207EB810102F040
:10138000BFFB09350436CDE7082100200408002002
:10139000EFF30983203383F30988002383F3118853
:1013A0007047000000000000000000000000000086
:1013B0007047000000000000000000000000000076
:1013C0007047000000000000000000000000000066
:1013D0007047000000000000000000000000000056
:1013E000FEE7000000000000000000000000000018
:1013F000F0B5082000261049D1E901341D460A68DD
:10140000043AAC4210D8E21CD21ADD1E22F00302CC
:10141000AC4238BF00221344CA689A4209D8013846
:1014200001F11001E8D1F0BD52F8047F45F8047BCA
:10143000E7E743F8046BF0E7204E000800000000E7
:1014400008B50548FEF7E4FFFEF792FFFEF7F8FF48
:10145000BDE80840FEF75CBF904D000800000000AA
:1014600008B50548FEF7D4FFFEF782FFFEF7E8FF58
:10147000BDE80840FEF74CBFA04D0008000000008A
:1014800008B50548FEF7C4FFFEF772FFFEF7D8FF68
:10149000BDE80840FEF73CBFB04D0008000000006A
:1014A00008B50548FEF7B4FFFEF762FFFEF7C8FF78
:1014B000BDE80840FEF72CBFC04D0008000000004A
:1014C00008B50548FEF7A4FFFEF752FFFEF7B8FF88
:1014D000BDE80840FEF71CBFD04D0008000000002A
:1014E00008B50548FEF794FFFEF742FFFEF7A8FF98
:1014F000BDE80840FEF70CBFE04D0008000000000A
:1015000008B50548FEF784FFFEF732FFFEF798FFA7
:10151000BDE80840FEF7FCBEF04D000800000000EA
:10152000054BD3E90C210A4303D072B6034ADA62B1
:10153000FEE701225A637047A41F002040490008BB
:10154000202383F31188FFF7EBBF000000000000A9
:10155000202383F31188FFF7E3BF000000000000A1
:10156000054B1A6B12B9596B002903DC72B6034A9A
:10157000DA62FEE75A637047A41F00205049000852
:101580002DE9F843904699460D46FFF7D9FFFEF73F
:101590006FFF06280446344E16D84FF0010E33492B
:1015A0000EFA00F70B681F4212D00020FFF7D8FF99
:1015B0003368B34253D0B2699B6892689A424ED264
:1015C00072B62B4BF362FEE772B62A4BF362FEE76C
:1015D0003B430B600134284B41F8348001EBC404D9
:1015E000C4F80490DC69254A44F08074DC619C6A8C
:1015F0004FEA001C44F080749C629B6A02EB00106E
:10160000B8F1000F1BD04C6883681C4215D1C37B16
:101610002D0103F16048EDB208F5614888F80053E8
:1016200003F01F055B099B0003F160430EFA05F50B
:1016300003F56143C3F880511D6027434F6002EBFF
:101640000C046368647B196821F00F01196052F87B
:101650000C100E22A2404A6000221A60A6E7002366
:1016600083F31188BDE8F883A41F0020C820002060
:10167000604C0008004D000800380240904D000802
:1016800008B5FFF76DFF084B1A689A4208D09969B0
:1016900092688968914203D272B6044ADA62FEE720
:1016A000002383F3118808BDA41F0020304C0008DC
:1016B00038B50C4D0446FFF743FF2869FFF7E0FFFC
:1016C000C369A34207D0FFF73BFF0069A84203D1DB
:1016D000FFF7D6FF002038BDFFF7D2FF0028EFD17B
:1016E000F9E700BFA41F0020000000000000000078
:1016F00008B5FFF735FF084B1A689A4208D0996978
:1017000092688968914203D272B6044ADA62FEE7AF
:10171000002383F3118808BDA41F0020F04C0008AB
:101720007FB5FFF70DFFFEF7B3FE0B4B01469B693C
:101730000A4A01A8FEF754FF0820FFF729FDFEF72B
:1017400097FE049B13B101A8FEF7B2FF07B05DF846
:1017500004EBFFF7CDBF00BFA41F00200105000868
:1017600080B501271E4B1F4A9B691F4E9A611F4C73
:1017700000212046B3681C4D04F102082A68B5F820
:1017800004C0D2F810E007FA0CFC1CEA0E0FA146C8
:1017900014F8012B1AD0012A1ED0042A0CBF0322F0
:1017A000022204F8012CAA689A4217D003B1984784
:1017B00048460021AB68444505F10C05DED103B174
:1017C00098474FF43470FFF7ABFFD0E7023A012A95
:1017D0008CBF01220422E4E70322E2E70131EAE7B9
:1017E000A41F0020604900086C1F0020841F0020F7
:1017F00008B5084B084A9B69084C9A6140F2DE30F4
:10180000FFF78EFF20680028F8D003685B689847D0
:10181000F4E700BFA41F002070490008681F0020E3
:1018200070B505460C461646FFF742FF20B172B66A
:10183000184B194ADA62FEE72B4655212A199A42BB
:1018400025D8283C2C44FFF77BFEA4F12403E36059
:10185000002344F8203C114B44F8246C44F8043C29
:101860008023A36002232384012384F822300C4BBD
:101870002046A361074BE5615A69236162611461E7
:101880005C61FFF7ADFCFFF733FF204670BD03F846
:10189000011BD4E7A41F0020C04C00086101000810
:1018A0008049000800000000000000000000000067
:1018B00008B5FFF755FE084B1A689A4208D0996997
:1018C00092688968914203D272B6044ADA62FEE7EE
:1018D000002383F3118808BDA41F0020904900084D
:1018E0002DE99F486C4B6D4A9B69DFF8B4816D4EC2
:1018F0009A614620FFF714FF98F80330B3B14046D1
:10190000FFF71EF9D6E9082100230290934223DB5A
:10191000FFF7FEFC43F6C430FFF702FFD6E90840AC
:1019200000231A46A3421BDB88F80320DFF87891D6
:1019300000274C465D4DAB69BB421ADCFF245C4B73
:10194000B16A1868736A0831043304338B4240F07B
:101950008C80FFF7DDFCCCE741F823000133D5E7AD
:1019600000EB830100F823204A708A70CA700133AB
:10197000D8E7A369002B6CD1E369002B69D14FF044
:101980001E0B01F085FDB0FBFBF34A464FF01E0A2B
:1019900003FB1B00536D9842F3D0BAF1010A02F128
:1019A0005802F7D16065D5E900B3019301F070FDED
:1019B000019B0133A3EB0B03B0FBF3F202FB13001B
:1019C00058446063D5E904B3019301F061FD019BC4
:1019D0000133A3EB0B03B0FBF3F202FB1300642310
:1019E000584484F83A302087D5E902B3019301F0D6
:1019F0004FFD019B0133A3EB0B03B0FBF3F202FBA2
:101A00001300584484F83B00D5E900B3019301F07A
:101A10003FFD019B0133A3EB0B03B0FBF3F202FB91
:101A20001300A36B58446364EB69206484F8473067
:101A3000FFF78EFD4FF0FF3304F13000C4E90600DC
:101A400063622368C4F820A01B6820469847FFF70C
:101A50002FFF04F12C00FFF773F8626D736A039097
:101A600043F822000137583465E713F8082C424345
:101A700092FBF4F203F8082C13F8072C424392FB74
:101A8000F4F203F8072C13F8062C424392FBF4F20D
:101A900003F8062C59E700BFA41F0020A049000846
:101AA000D00C002008210020181500200C0C00206C
:101AB000A00D002000000000000000000000000059
:101AC00002224FF4E17008B5074B1A70FFF740FD92
:101AD000064B1B880433B0FBF3F00130FFF790F89E
:101AE000BDE80840FFF7E4BEA40D0020A00D0020D3
:101AF00008B5FFF72DFD012380F88F31BDE80840C0
:101B0000FFF7D6BE0000000000000000000000004B
:101B1000A0F5CA70FFF7ECBF000000000000000055
:101B20000FB407B504AB53F8040B0193FFF710FD96
:101B30000146019A0448FEF7D3FEFFF7B9FE03B051
:101B40005DF804EB04B07047380F0020000000007F
:101B500008B50F48FFF7E4FF4FF480020D4B4FF438
:101B6000E1709A61FFF7DCFD72B60B4BD3E90C21F3
:101B70000A4303D072B6094ADA62FEE7084A53689C
:101B800043F480735360BDE80840FEF7B9BF00BF5F
:101B9000B049000800000240A41F0020C04900080E
:101BA0000070004000000000000000000000000085
:101BB00008B50378012B06D10348FFF7B1FFBDE854
:101BC0000840FFF7C5BF08BDD0490008000000006D
:101BD00038B51B4C2068A16903685C602360012351
:101BE00080F82030A061FEF743FC19B972B6154B9E
:101BF000E362FEE791F820300BB10F2B03D172B6F0
:101C0000104BE362FEE7002381F8203023468A6808
:101C10001B689D689542FBD85A680B604A6011604A
:101C20005960EFF30983CA69243B9A4203D972B61B
:101C3000054BE362FEE7BDE83840FEF789BA00BF16
:101C4000A41F0020704C000810490008000000008C
:101C500008B5FEF71DFCFEF70BFC064B1A689B69E6
:101C600092689B689A4203D9BDE80840FFF7B0BF6D
:101C700008BD00BFA41F00200000000000000000FD
:101C800008B5FFF765FCFFF7B3F9FFF7E1FFBDE823
:101C90000840FFF70DBE000000000000000000003B
:101CA0002DE9F74305460C464FF000094FF08046FA
:101CB000DFF86C801B4F5FFA89F39C4202D803B0B7
:101CC000BDE8F083EA5C032A07D1002208F803206C
:101CD000736A3B8009F10109EDE7042A0ED118F877
:101CE0000320002AF6D1022200924FF48062684657
:101CF00001928DF80130FFF7C3FFEBE7022AE9D12B
:101D000018F80320002AE5D13988726A521A42F283
:101D1000057192B28A42DDD9012208F80320E3E777
:101D2000B40F00209012002000000000000000000E
:101D300090F88F3173B50446002B51D00025294E01
:101D4000A1680BE084F80052C4F8FC51082AD4F8CA
:101D5000FC311ED113B1013BC4F8FC314B68D4F8FF
:101D600028215B68C3F163039B1A48BF6333BBB38D
:101D7000531C632BC4F82831A8BF2B46224492F889
:101D80002C21C4F8283194F8003252B2002BDDD057
:101D9000D8E70D2A01D00A2A19D1002BDED023441E
:101DA00083F89851314604F5CC7001F079FD012398
:101DB000C4F8040204F5CA72684684F8003284F854
:101DC0008F5100928DF80530FFF75AFFB8E7612B6D
:101DD000C4D8581C2344C4F8FC0183F89821BDE7FB
:101DE00002B070BD30490008000000000000000093
:101DF0000A4C08B5FFF7A4FBA36993F822205862A8
:101E000022B9D3E9041211611B695A610F20FFF74F
:101E1000BFF972B6024BE362FEE700BFA41F0020C9
:101E2000804D0008000000000000000000000000DD
:101E30002DE9F047FEF7ECFA4FF080431A6992075C
:101E40005CD54FF00009304CC8462646C3F81090C8
:101E5000FEF77EFCFEF70CFBFEF70AFB56F81C1F94
:101E60004FF08047786A258D80B28B68451BADB2F4
:101E70009D421FD38A68238DD1F80CA0134423857B
:101E80000B68AD1AB3425E60E361C1F80C9008BF05
:101E9000C7F80C90FEF7A4FA88F311880869D047B8
:101EA000202383F31188FEF783FAE1698B689D4252
:101EB000E0D2D5E7E369B3421ED09A682085521B71
:101EC0009A608B68B3F5803F03D372B60F4BE36221
:101ED000FEE7022B2CBFC018023080B2FEF770FB69
:101EE000238D7A6AC01AD21A92B280B2824203D982
:101EF00072B6074BE362FEE7FEF732FCFEF7A0FA8C
:101F0000BDE8F047FEF704BAA41F0020904C00087B
:101F1000304D00080000000000000000000000003C
:101F200008B50346084A03331068084923F0030341
:101F300003448B4206D901F0CBFD0C2303604FF024
:101F4000FF3008BD1360FCE7040C002000280020CF
:101F50001046704700000000000000000000000074
:101F60004FF0FF307047000000000000000000004C
:101F70004FF4005300204B60704700000000000049
:101F80000120704700000000000000000000000079
:101F90000120704700000000000000000000000069
:101FA0001622024B4FF0FF301A607047802200204B
:101FB000002070470000000000000000000000004A
:101FC000002070470000000000000000000000003A
:101FD000074B08495A6922F080025A6111F9012B16
:101FE0000AB901BEFEE718680006FCD55A60F5E79D
:101FF00000380140E0490008000000000000000037
:1020000008B5FEF705FA08480849FEF7A1FBFFF7F7
:1020100037F90122064B5A61FEF7A2FBFEF710FAD0
:10202000BDE80840FEF774B920490008F0490008EF
:10203000000401400000000000000000000000005B
:1020400008B5FEF7E5F908480849FEF781FBFFF7F8
:1020500017F90222064B5A61FEF782FBFEF7F0F9F0
:10206000BDE80840FEF754B920490008004A0008BE
:10207000000401400000000000000000000000001B
:1020800008B5FEF7C5F908480849FEF761FBFFF7F8
:10209000F7F80422064B5A61FEF762FBFEF7D0F90F
:1020A000BDE80840FEF734B920490008104A00088E
:1020B00000040140000000000000000000000000DB
:1020C00008B5FEF7A5F908480849FEF741FBFFF7F8
:1020D000D7F80822064B5A61FEF742FBFEF7B0F92B
:1020E000BDE80840FEF714B920490008204A00085E
:1020F000000401400000000000000000000000009B
:1021000008B5FEF785F908480849FEF721FBFFF7F7
:10211000B7F81022064B5A61FEF722FBFEF790F942
:10212000BDE80840FEF7F4B820490008304A00082E
:10213000000401400000000000000000000000005A
:1021400008B5FEF765F909480949FEF701FBFFF7F5
:1021500097F84FF47872074B5A61FEF701FBFEF7D0
:102160006FF9BDE80840FEF7D3B800BF204900086A
:10217000404A000800040140000000000000000088
:1021800008B5FEF745F909480949FEF7E1FAFFF7F6
:1021900077F84FF47C42074B5A61FEF7E1FAFEF7FD
:1021A0004FF9BDE80840FEF7B3B800BF204900086A
:1021B000504A000800040140000000000000000038
:1021C00008B5FEF725F9FEF7C3FA054B9B68FEF745
:1021D000C7FAFEF735F9BDE80840FEF799B800BF29
:1021E000003001400000000000000000000000007E
:1021F00008B5FEF70DF9FEF7ABFA054B9B68FEF745
:10220000AFFAFEF71DF9BDE80840FEF781B800BF40
:102210000038004000000000000000000000000046
:10222000594B2DE980485A6A584C42F080525A6204
:102230001A6B97B022F080521A631B6B6368D80741
:102240004FD44FF08052504B504D5A626B68DB06B2
:10225000FCD42B6823F4C05343F400632B606C68F8
:1022600014F01004FBD1FEF7ABFE002858D0002379
:102270004FF4803615934FF400334FF48027CDE9A7
:102280000E63434BDFF80CC1CDE91073424B434A58
:10229000CDE912C3424B10685168149307AB03C3D6
:1022A000127A0AAD1A703F4B1F4603F110062A46F8
:1022B00018685968083303C2B3421546F7D17168EC
:1022C000386905AB03C330498B68C3F38103022B24
:1022D00000F06081032B00F04781012B6CD1324A62
:1022E00072E03248FEF744FA036823F00303036008
:1022F000C36823F00303C360C36843F00203C360F1
:102300000369D9079DD52A490369DA0705D46368AB
:1023100043F480736360FEF7F3FB0139F4D190E777
:102320002A68244BC2F3C122032A01D0022A27D1F2
:102330001A6842F001021A60134B9A6822F4803244
:102340009A601A68D0015FBF9A6802F47C0242F476
:1023500004029A609A6822F47F5222F0300242F01E
:1023600080029A601A6842F080721A6042F20F721C
:10237000054B1968890100F16186013AF9D176E7C8
:102380001A6822F00102D6E70038024000700040CF
:102390009CFF0700C0FD0F0068FF1F004B4B0008AB
:1023A000D0FE3F00804800080024F40000000240F6
:1023B000603D0800003C02404B6816AAC3F342335C
:1023C00002EB830353F8202C734BDFF8D08199681C
:1023D000734EC1F303115831694411F8301CCA40DF
:1023E000C8F8002099689868C1F30221C0F3C220A0
:1023F000583158306944684410F8440C11F8441CB2
:1024000022FA01F1C240C8F80410C8F808201A697D
:1024100042F07F4242F47F0242F4FF4242F0400227
:102420001A611A6922F4FF4222F040021204120CCF
:102430001A611A699A6962F080529A619A6902F087
:1024400080529A619A695A694FF0FF325A615A690B
:1024500000225A615869586A40F080505862186BDF
:1024600040F08050186310461B6B4E4BC3E90022AE
:1024700006EB84056D682A6003EB440504341C2CCC
:10248000AA60F5D14FF0FF36474B20255E60A3F5DB
:1024900020535C6A44F001045C621C6B44F001044C
:1024A0001C63424C1B6BA36843F00103A36042F220
:1024B0001073B1FBF3F14FF08043314499624FF652
:1024C000FF71D96201214FF080549A615A63DA603A
:1024D0005A6059611960364B83F81C53C3F8804128
:1024E0001C60344C04F11C03C4E9073380232364CB
:1024F000314BC4E90C22236504F13803A260228524
:10250000C4E90044C4E912446662C4E90433A36127
:102510002A4BA4F858106365294B84F85A10D968DF
:10252000284A21F4E0610904090C0A43DA60D3F86F
:10253000FC20254942F08072C3F8FC200A6842F072
:1025400001020A601022DA7783F8225080F31188A2
:1025500062B61E48FFF7ACF81C4D074600283DD078
:1025600072B61B4BE362FEE78B681A48C3F38343E2
:1025700058336B4413F83C2C8B688968C3F3815340
:1025800011F4803F144918BF01464A430133B2FB9E
:10259000F3F219E70F4A17E700380240C40C002095
:1025A000904D0008C820002000600240002004E098
:1025B00000E100E0A41F0020004E000800040020FD
:1025C00000ED00E00003FA05001000E00820002004
:1025D000E04C0008001BB7000024F4004FF0C009D5
:1025E0002B465522B9F1010903F8012BFAD1FEF768
:1025F000A7FFFDF73DFFBC4B0222C5E91D39BB4BD0
:10260000BB48C5F894300123C5F8A03085F8BA302E
:10261000B84BB94EC5F8B0306369C5F8A400243092
:10262000A5F8B820C5F8AC30C5F8B450C5F8A84036
:1026300018616061FEF7D4FDFFF75AF806F1A403B4
:10264000C6E929331223C6F8AC3006F19803C6E96F
:1026500026330723A94DC6E92466D5F80CA0C6F891
:10266000A090BAF80C1000934A464B46DAF80800DE
:10267000FEF7FEFBDAF80430A14A934240F095825F
:1026800002F58032116A41F480411162D16A21F46D
:102690008041D162D26AD8F80820DAF800104FF0F1
:1026A0000009B2FBF1F29A600921964ADAF81800A3
:1026B000C3F81090914BFEF763FFD5F80CA0436868
:1026C000DAF804206860111D9960DAF820101960AA
:1026D00001230C2185F81831D160C02151610722F6
:1026E000BAF814100092DAF810001A46FEF7C0FB90
:1026F0004B464A460921DAF81C00FEF741FFE9681B
:1027000043684A68A860101D98607F48496AD8608D
:10271000632058601960196841F001011960D3689D
:1027200043F40053D360794B1A6802B91D60784DA9
:102730002B6833B94FF49871764A7748FFF770F8F1
:102740002860764A76497748FFF7EAF9D8E9000227
:102750007549D8F80830754DB3FBF1F3B2FBF1F2CF
:10276000B0FBF1F17248FFF7DBF9D5F8089099F862
:102770000A30B9F8081000930023D9F804001A466B
:10278000FEF776FBD9F800206A4B9A4240F02B8284
:1027900003F58433196A41F480511962D96A21F42E
:1027A0008051D962DB6A4FF441731360614B9A42E6
:1027B0000CBFD8F80810D8F804105F4BB1FBF3F346
:1027C000802B00F32082402B00F31F82202B00F38C
:1027D0001E82102B00F31D82082B00F31C82042B99
:1027E00000F31B82022BD4BF00230123D5E9040C84
:1027F000116841EAC303136000235360116841F07C
:1028000040011160516841F00201516019461A46B9
:102810002B628242C0F2038203B12962296A4748CF
:10282000FFF77EF948222B6A45485343D91D48BF1C
:1028300003F10E01C91064312960FFF771F92868AE
:1028400000F06EFDD5E90921D5F820A0A1EB020921
:102850004FEAA9039A45686040F251826FF06040E8
:10286000EA6AAAEB030B521ABBEBA20FA0EB030C14
:1028700000F2DB8158460B46002201381A705A706C
:102880009A70DA7003F10403F7D101EB8B01A962AE
:1028900000212A68686800F0FBFFA8680F21234B1D
:1028A000284AC068FEF76CFEA96842680B68264F8C
:1028B0000C33E86093600B6938461360FDF758FFEE
:1028C0003B684FF42C7123F440533B603B681F4A34
:1028D00043F480533B607B681D4823F040037B60DA
:1028E0007B687B6036E000BFB1050008610100082D
:1028F0007C200020604A0008D80C0020A80D002091
:1029000000380140B10A0008D40E0020681F0020E2
:102910008C1F0020F1170008E8130020654A00080A
:10292000734A00087E4A000840420F000821002038
:10293000864A000800300140A0252600B54A00085C
:10294000C14A0008610E000800000240E1180008BA
:10295000B80F0020FB6823F44053FB60FB68FB606A
:10296000BB6823F44053BB60BB6843F40053BB60B7
:102970004023BB61FEF754FFFFF7A2F83A6912F05B
:10298000010240F0C48117469346DFF8A882DFF8C1
:10299000A8A2D8F8000098F80690B8F80410FDF73F
:1029A000E7FE032349000268C9B203FA01FC22EAE8
:1029B0000C020260C26809FA01F922EA0C02C26044
:1029C000C26808F10C0849EA0202C2600AF801BBB9
:1029D000002F00F0A181994A4FF498719848FEF7B2
:1029E0001FFF9848FDF7C4FE03684FF0070B23F064
:1029F0003003036003684FF0050843F010030360E1
:102A0000436823F00403436043684360C36823F0D2
:102A10003003C360C368C360836823F030038360FE
:102A2000836843F02003836004238361FDF7A0FEE5
:102A30000368DFF814E243F00C030360834B4FF0AC
:102A40001F0C1A6A42F400721A62DA6A22F40072E7
:102A5000DA62DB6ADEF8043023F4403343F4803377
:102A6000CEF804307A4B1A6B22F0F8721A631A6BA4
:102A700042F470021A63774A03923A46039911F8B6
:102A8000010B039109284FEA4001014400F24681FD
:102A90005F690BFA01F927EA09075F615F6908FAC4
:102AA00001F13943596111460832D2B2062900F2C8
:102AB00051814F1ED3F8409007EB87070CFA07FAB5
:102AC00029EA0A09C3F84090D3F8409000FA07F7C2
:102AD00047EA09071F640131C9B28A42E6D1112AC7
:102AE000CCD1DEF804300F2143F40003CEF80430DB
:102AF0000023594A1846FEF743FD584A4368584F89
:102B00009A6040F28252DFF85C811A60C8F80000D7
:102B1000FEF71EFDD7F81890381DFDF759FE3B460D
:102B20004946514A381DFDF75BFDFEF7C1FE002303
:102B3000CDE90E33FEF70CFDFDF7AAFCD6F8A03068
:102B4000D6F89820002B4949C0F25C818A4240F0B7
:102B50005C81013B002BC6F8A030C0F25A81D6F848
:102B60009020134653F8081B0E9152680F92404A6A
:102B7000A2F19000934228BF034602F11400C6F868
:102B80009030FDF7EDFCFFF763F8FEF791FE9DF83E
:102B90003D104B1E052B00F24B82DFE813F0E501E0
:102BA000A001BC014F014902E201324A93420DD11A
:102BB00002F5FA32516A41F400315162116B21F48D
:102BC00000311163126BD8F8042066E52A4A93425B
:102BD000F9D102F5F832516A41F480215162116B4A
:102BE00021F48021EDE7254B9A427FF4DCAD03F51B
:102BF0000033596A41F480415962196B21F48041D4
:102C000019631B6BCFE50723F0E50623EEE50523EB
:102C1000ECE50423EAE50323E8E50223E6E55CF8B6
:102C20003230013219440123F3E5E3452AD914482F
:102C300000F056FB6C1F0020841F00206117000865
:102C4000B812002000040240002701400038024072
:102C500000240140804B0008511000085824014016
:102C600094120020881F0020F1070008700D00203A
:102C7000680D00200044004000480040003800403B
:102C8000D34A00085B451A4638BF5A4613EB020880
:102C900080F0D281B8F1000F07D0804528BF804670
:102CA0004FEA880000F004FB07460023B94409EB13
:102CB0008B0B89F8003089F8013089F8023089F8E7
:102CC000033009F10409CB45F3D1D5E909013A46AE
:102CD0000346994202F104020CD118B1E96A091ABB
:102CE00000F0DEFA07EB8A036F6207EB8807AB623E
:102CF000EF62CDE553F804CB42F804CCE9E7BFF42A
:102D0000C7AD02EB8A02914218BFAA62C0E540F249
:102D10007620FEF705FD31E601273AE613280CD8A8
:102D20001F691E390BFA01F927EA09071F611F699C
:102D300008FA01F139431961B5E6DF683C390BFA4D
:102D400001F927EA0907DF60DF6808FA01F1394372
:102D5000D960A8E60C2912D8CF1FD3F83C9007EB16
:102D600087070CFA07FA29EA0A09C3F83C90D3F856
:102D70003C9000FA07F747EA0907DF63ABE6122940
:102D800013D8A1F10D07D3F8389007EB87070CFA99
:102D900007FA29EA0A09C3F83890D3F8389000FAFC
:102DA00007F747EA09079F6395E6182913D8A1F1A9
:102DB0001307D3F8349007EB87070CFA07FA29EAD0
:102DC0000A09C3F83490D3F8349000FA07F747EAB9
:102DD00009075F637FE61C293FF67DAEA1F1190765
:102DE000D3F8309007EB87070CFA07FA29EA0A09AB
:102DF000C3F83090D3F8309000FA07F747EA090794
:102E00001F6368E68A427FF4A4AE72B6914BE36218
:102E1000FEE7A369904A05205A621A60D6F89C2002
:102E20005A601360C6F89C30FDF732FBFEF7B0F92C
:102E3000A3695B6A002B7FF4A8AE90E69DF8397019
:102E4000002F7FF474AE9DF83820012A19D18349F0
:102E50000B7883F001030B7083B14FF4E170804B6A
:102E60001A70FEF775FB7F4B1B880433B0FBF3F041
:102E70000130FDF7C5FEFEF71BFD58E6FEF720FE0C
:102E800055E6022A7FF453AE774B784A19683B46E1
:102E900088B232F823C0844519D802EB83029778B0
:102EA0003A467348FEF73CFE142F14D93B2F14D931
:102EB000704B714A592F98BF1346ADF8283046F22F
:102EC0006443ADF82A300A9A6C4B1A602FE601333E
:102ED0000A2BDED1E4E76A4BEFE76A4BEDE7FEF73A
:102EE0006FF8D8F80030684A5B68DA6010225A60E0
:102EF00040F282521A601A6842F001021A604FF4DE
:102F00008072624B5A6040F201129A609A6842F0F5
:102F100080429A600BE65E4B1A7812B100221A705A
:102F200005E61120FEF714F807460920FEF710F811
:102F3000584BB3F8781040F6B83389B2594340F68D
:102F4000FF73B1FBF3F14143B1FBF7F1464B49008D
:102F5000196040F6E34399423FF6E9AD4E48FEF76B
:102F6000DFFDFEF7F5FDE2E50E9F4C49D7F870B0A6
:102F70005846FEF7EDF820B100213846FDF7D8FDA0
:102F80000DE058464649FEF7E3F8814660B13B68DC
:102F90003846D3F80490434A434B4449C8473B68FA
:102FA00038461B689847C2E558464149FEF7D0F8B5
:102FB0008246C0B10DF12A03009303210DF12903CC
:102FC0000AAA381DCDF82890FEF772F960BBD5E942
:102FD00008320A99984202DBFEF79AF9CCE742F8E8
:102FE00020100130F6E758463249FEF7B1F8E8B153
:102FF000DFF8C490DFF8C4B05946002000F050FC60
:10300000786790F900207AB100220AA900F000FB4D
:103010000A9A92F9001039B90AF1010ABAF1080FB7
:1030200049F8040BE8D1A8E70721A6E70621A4E7A1
:103030002348FEF775FD7AE5804631E69A6842F04E
:1030400003029A609A6802F00C020C2AFAD1FFF788
:103050000EB900BF604D0008700D00209C0D0020CF
:10306000A40D0020A00D0020080C0020904B0008AB
:10307000ED4A0008F000646478006464D00C00201D
:10308000000064641E006464A40C0020002401405D
:10309000000800200000F81F064B00081E4B000827
:1030A000234B0008734A0008654A00087F4A00085D
:1030B0002B4B0008324B00080C0C00203049000854
:1030C000394B000800000000000000000000000074
:1030D000034B586A18B1D96A091A00F0E1B8704771
:1030E0000821002000000000000000000000000097
:1030F0002DE9F84F00261E254FF0FF39524B534C57
:10310000DFF84CA11E705E709E70DE7078234FF069
:103110000408A3856423C4E90666C4E90869A662B5
:10312000C4F800A084F82E3084F82F8004F1300019
:103130002422002100F0ACFB03274FF00000013DEA
:10314000268784F83A6084F83B00A4F8446084F849
:10315000466084F84760A764A4F8506084F8526021
:1031600084F85360C4F8549004F15804CED14FF061
:10317000000A4FF0000B4FF4E131364B364AC3E9F9
:1031800000ABC3E92433354B9224C2E90013092371
:103190003349C2F81C80C2E902130A23C2E9053789
:1031A0004FF48553C2E908432E4B1161DA6003F1F5
:1031B0001002C3E94422012283F8182183F88F21E9
:1031C000294AC3E947551A6002F120043032C3F896
:1031D0009421C3E94955C3E98155244AC3F8FC51F8
:1031E00083F80002C3F89041214B224E1A6042F24C
:1031F00006729A614FF481729A831F4A1F4BC2E98B
:1032000000310223C2E9026342F2920313611C4BB4
:10321000C3E902251B4AC3E900555A614FF4003245
:103220001F61C3E90755C3E909551876DD62164BDE
:103230005A60164A1960C3E90221154A1A61154AF3
:103240005A61BDE8F88F00BFD00C0020181500208F
:10325000C84B0008D80C002068120020003801403C
:1032600000000240A80D0020F84B0008E84B0008C1
:103270009412002007000500901F0020003001403C
:1032800008210020604B00086C1F0020A11C0008D2
:1032900002000100B11B0008000000000000000057
:1032A00000F026B800000000000000000000000050
:1032B000012838BF012010B50446204600F030F840
:1032C00000B110BD00F01CF808B900F021F88047EB
:1032D000F3E7000000000000000000000000000014
:1032E00008B500F015F80000000000000000000024
:1032F00000F01EB800000000000000000000000008
:10330000024B1868BFF35B8F704700BF3821002065
:10331000062008B500F04CFB012001F041F9000047
:10332000024B0146186800F02BB800BF840C002047
:10333000024B0146186800F013BC00BF840C00204B
:1033400070B50E4E0C463168054611B900F098FB79
:1033500030602146284600F093FB431C0AD0C41C71
:1033600024F00304A04207D0211A284600F088FB6D
:10337000013001D14FF0FF34204670BD40210020C4
:103380002DE9F041CD1C25F0030508350C2D38BF83
:103390000C25002D074601DBA94205D90C23002688
:1033A0003B603046BDE8F0812F4E00F061F8336895
:1033B0001C4644BB29463846FFF7C2FF431C04465F
:1033C0004FD134682646002E42D1002C43D02368CA
:1033D0003146384604EB030800F052FB80453AD1F1
:1033E00023680335ED1A25F0030508350C2D38BF89
:1033F0000C2538462946FFF7A3FF01302BD0236860
:103400002B4423600EE02268521B1ED40B2A16D9CF
:103410006119A342256018BF5960636808BF316015
:1034200062514B60384604F10B0600F029F826F093
:103430000706231DF21AB4D09B1BA350B1E76268A4
:10344000A3420CBF32605A60ECE723466468B0E7E1
:1034500034467668B7E70C2338463B6000F010F836
:103460009FE72560DEE700BF3C2100200000000050
:10347000014800F035BB00BF84220020000000009E
:10348000014800F035BB00BF84220020000000008E
:10349000164B10B51C68236BB3B91820FFF740FF1B
:1034A0000246206320B94C21114B124800F038FB32
:1034B0001149124BC0E90013114B002183600B230B
:1034C00083810120C2E90401216B0E480B694C691C
:1034D00058430D4A02FB0400A3FB0232013340EBC8
:1034E0000200C1E9043020F0004010BD840C00202F
:1034F000A04E0008B74E00080E33CDAB34126DE677
:10350000ECDE05002DF451582D7F954C0000000095
:10351000012B2DE9F0478646904601D0242B06D991
:1035200000F0D6FA162303600020BDE8F0870D46B0
:1035300035482A4615F8014B065D16F00806F8D105
:103540002D2C2ED101262C78951C002B57D0102B1A
:1035500009D1302C07D12A7802F0DF02582A49D14C
:1035600010236C780235002206F1004C0CF1FF3C70
:10357000BCFBF3F9104603FB19CAA4F13007092F6D
:1035800014D83C46A34220DD571C07D0814519D3EF
:1035900001D1A24516DB012200FB034015F8014BC7
:1035A000EBE72B2C04BF2C78951CCEE7A4F1410748
:1035B000192F01D8373CE5E7A4F16107192F04D88A
:1035C000573CDFE74FF0FF32E8E7531C08D12223D6
:1035D0006046CEF80030B8F1000FA6D0691E06E0B4
:1035E00006B14042B8F1000F9FD0002AF6D1C8F8CA
:1035F00000109AE73024002BB5D10823B3E7302C14
:10360000A9D00A23AFE700BF314F00080000000037
:1036100013460A46014602480068FFF779BF00BF1B
:10362000840C0020000000000000000000000000EA
:10363000002310B50446C0E90033C0E904338360B9
:1036400081814366C2818361194608225C3000F0A3
:103650001FF9054B24626362044BA362044BE362CF
:10366000044B236310BD00BFE13700081138000888
:1036700051380008813800080000000000000000F8
:10368000024A0349034800F08BB800BF2C0C00200D
:10369000E1420008380C002000000000000000009B
:1036A00041680C4B10B59942044601D000F018FE59
:1036B000A168094B994202D0204600F011FEE16852
:1036C000064B994204D02046BDE8104000F008BEE9
:1036D00010BD00BF44210020AC2100201422002096
:1036E00010B50B4B0B4C0C4A20461A6004210022EB
:1036F000FFF79EFF04F1680001220921FFF798FF00
:1037000004F1D0000222BDE810401221FFF790BF63
:103710007C220020442100208136000800000000A7
:10372000014800F0DDB900BF852200200000000044
:10373000014800F0DDB900BF852200200000000034
:1037400010B50446FFF7ECFF236A1BB1BDE810403B
:10375000FFF7EEBF044B2362044B1B68002BF5D12F
:10376000FFF7BEFFF2E700BFA13600087C22002071
:103770000EB403B5014603AB054853F8042B0068AB
:10378000019300F065FA02B05DF804EB03B07047F6
:10379000840C002000000000000000000000000079
:1037A0002DE9F8430746884614460026D4E90195DA
:1037B000B9F1010905D52468002CF7D13046BDE8E0
:1037C000F883AB89012B07D9B5F90E30013303D04B
:1037D00029463846C04706436835E9E7000000003F
:1037E00010B50C46B1F90E1000F012F90028ABBF6D
:1037F000636DA3891B1823F48053ACBF6365A38159
:1038000010BD0000000000000000000000000000EB
:103810002DE9F0411F468B890546DB050C4616460F
:1038200005D502230022B1F90E1000F0D9F8A389C2
:10383000324623F48053A38128463B46B4F90E1048
:10384000BDE8F04100F02CB90000000000000000CD
:1038500010B50C46B1F90E1000F0C2F8431CA38954
:1038600015BF606523F4805343F48053A38118BFD0
:10387000A38110BD00000000000000000000000057
:10388000B1F90E1000F09CB800000000000000002C
:1038900003460244934200D1704703F8011BF9E745
:1038A000164B2DE9F0411F6805467C6C0E46ECB9BD
:1038B0005020FFF735FD0246786420B95B21104B9C
:1038C000104800F02DF9C0E90044C0E90244C0E905
:1038D0000444C0E90A44C0E90C44C0E90E44C0E90C
:1038E0001044C0E91244846104774462314628469A
:1038F0007A6C0123BDE8F04100F00AB8840C002086
:10390000A04E000840500008000000000000000029
:10391000F0B508B9106888B104460F46204614F87F
:10392000015B17F8016B1EB965B92846156005E003
:10393000B542F6D1002BF0D114600370F0BD1C46E7
:103940000CE015B90E4614F8013B16F8015BAB42CA
:10395000F7D1002BF3D0002304F8013C1460EDE70D
:103960001F2938B504460D4604D9162303604FF0CD
:10397000FF3038BDC26B12B152F821304BB920462E
:1039800000F076F82A4601462046BDE8384000F0AF
:1039900057B8012B0AD0591C03D11623036001200C
:1039A000E7E70024284642F8254098470020E0E752
:1039B000024B01461868FFF7D3BF00BF840C0020FC
:1039C00038B50023054D044608462B60FEF7C8FABB
:1039D000431C02D12B6803B1236038BD8022002034
:1039E00038B50446084611460022054D2A601A469D
:1039F000FEF7DEFA431C02D12B6803B1236038BD09
:103A000080220020000000000000000000000000F4
:103A100038B50446084611460022054D2A601A466C
:103A2000FEF7CEFA431C02D12B6803B1236038BDE8
:103A300080220020000000000000000000000000C4
:103A400038B50023064D0446084611462B60FEF7A4
:103A5000A7FA431C02D12B6803B1236038BD00BF15
:103A60008022002000000000000000000000000094
:103A7000FEF786BA00000000000000000000000011
:103A800038B50023054D044608462B60FEF748FA7A
:103A9000431C02D12B6803B1236038BD8022002073
:103AA00038B50446084611460022054D2A601A46DC
:103AB000FEF74EFA431C02D12B6803B1236038BDD8
:103AC0008022002000000000000000000000000034
:103AD000014B1868704700BF840C002000000000F4
:103AE000704700000000000000000000000000001F
:103AF000704700000000000000000000000000000F
:103B00000A44914200F1FF3300D1704710B511F81B
:103B1000014B914203F8014FF9D110BD00000000A4
:103B20001FB514461A46094B05461B68D8684CB1A8
:103B3000074BCDE9013400912B460649FFF718FEEB
:103B4000FFF7E6FB044B1C46F3E700BF840C0020A4
:103B5000B0500008BD5000080849000800000000EF
:103B600038B50546002940D051F8043C0C1F002B05
:103B7000B8BFE418FFF77CFC1C4A136833B96360D4
:103B800014602846BDE83840FFF77ABCA34208D944
:103B9000206821188B4201BF19685B6809182160F1
:103BA000EDE71A465B680BB1A342FAD911685018C9
:103BB000A0420BD120680144501883421160E0D12B
:103BC00018685B68084410605360DAE702D90C2378
:103BD0002B60D6E7206821188B4201BF19685B680B
:103BE0000918216063605460CBE738BD3C21002098
:103BF000936810B4013B002B936007DA9469A342E9
:103C000001DB0A2902D110BC00F092BB1368581CDA
:103C100010601970084610BC7047000000000000DA
:103C2000F8B506460F461446D518AC4201D100201F
:103C300007E03A46304614F8011BFFF7D9FF431C52
:103C4000F3D1F8BD000000000000000000000000FB
:103C50002DE9F04F0D461446984606469DB018B122
:103C6000036A0BB9FFF76CFD6B6ED90705D4AB89FE
:103C70009A0502D4A86DFFF733FFAB891B0701D566
:103C80002B699BB92946304600F092FB70B16B6EF0
:103C9000DC0704D54FF0FF301DB0BDE8F08FAB89D5
:103CA0009805F7D4A86DFFF723FFF3E700230993E6
:103CB00020238DF8293030234FF00109CDF80C80F6
:103CC000DFF8AC818DF82A3023469A4613F8012B91
:103CD0000AB1252AF9D1BAEB040B0BD05B46224678
:103CE00029463046FFF79CFF013000F0A980099A71
:103CF0005A4409929AF80030002B00F0A18000236A
:103D00004FF0FF32CDE905230AF1010A049307932E
:103D10008DF853301A935446052214F8011B544869
:103D200000F09EFB049AD8B9D10644BF20238DF839
:103D30005330130744BF2B238DF853309AF80030CB
:103D40002A2B15D0544600204FF00A0C079A214622
:103D500011F8013B303B092B4DD9B0B1079214E06B
:103D6000A0EB080309FA03F31343A2460493D2E736
:103D7000039B191D1B680391002BBBBF5B4242F0E4
:103D8000020207930793B8BF049223782E2B0CD11D
:103D900063782A2B34D1039B02341A1D1B680392CB
:103DA000002BB8BF4FF0FF330593DFF8C8A0032204
:103DB0005046217800F054FB38B14022049BA0EB20
:103DC0000A00824013430134049314F8011B0622B5
:103DD00029488DF8281000F043FB00283FD0274BDE
:103DE0001BBB039B073323F0070308330393099B93
:103DF0003B44099368E70C4601200CFB0232A6E71E
:103E000000234FF00A0C194601340593204610F8A0
:103E1000012B303A092A03D9002BC6D00591C4E7FB
:103E2000044601230CFB0121F0E703AB00932A4673
:103E30003046134B04A9AFF300800746781CD6D157
:103E40006B6ED90705D4AB899A0502D4A86DFFF72C
:103E50004FFEAB895B063FF51DAF09981CE703AB2E
:103E600000932A463046064B04A900F089F8E4E79F
:103E7000F0500008F6500008FA500008000000005A
:103E8000213C0008000000000000000000000000CD
:103E90002DE9F047164699468A680B690746934212
:103EA000B8BF1346336091F843200C46DDF82080FC
:103EB0000AB1013333602368990642BF3368023385
:103EC0003360256815F0060506D104F1190AE36888
:103ED00032689B1AAB422BDC94F84320131E2268F5
:103EE00018BF0123920630D44946384604F14302F4
:103EF000C047013023D02368226903F00603042B56
:103F000014BF002533684FF0000608BFE56804F1D0
:103F10001A0408BFED1A54F8123C08BF25EAE575EB
:103F20009342C4BF9B1AED18B5421AD1002008E095
:103F30000123524649463846C047013003D14FF06D
:103F4000FF30BDE8F0870135C1E73020E11881F886
:103F500043005A1C94F845102244023382F843105F
:103F6000C2E70123224649463846C0470130E6D021
:103F70000136D9E70000000000000000000000004A
:103F80002DE9FF470F7E9146782F80460C469A46D2
:103F90000C9D01F1430207D8622F0AD8002F00F0D0
:103FA000D580582F00F0C18004F1420584F842709A
:103FB0003AE0A7F16303152BF6D801A151F823F0DD
:103FC000194000082D400008A93F0008A93F00083B
:103FD000A93F0008A93F00082D400008A93F00089C
:103FE000A93F0008A93F0008A93F00083341000885
:103FF00059400008ED400008A93F0008A93F00080B
:1040000055410008A93F000859400008A93F000891
:10401000A93F0008F54000082B681A1D1B682A609C
:1040200004F1420584F842300123A0E020682B68A7
:10403000070603F10401296001D51E6803E0460666
:10404000FBD5B3F90060002E03DA2D23764284F805
:1040500043300A23594812E02B682068191D296053
:10406000050601D51E6802E04106FBD51E886F2FAC
:104070000CBF08230A235148002184F843106568C7
:10408000002DA8BF2168A560A4BF21F00401216014
:104090000EB9002D4BD01546B6FBF3F103FB1167AB
:1040A000C75D05F8017D3746BB420E46F4D9082BA3
:1040B0000BD12368DE0708D5236961689942DEBF0A
:1040C000302305F8013C05F1FF35521B22614B46B8
:1040D00021464046CDF800A003AAFFF7D9FE0130E3
:1040E0004AD14FF0FF3004B0BDE8F087236843F0B9
:1040F000200323607827324884F8457023682968B4
:104100001F0651F8046B02D45F0648BFB6B2DF0742
:1041100048BF43F02003296048BF23601EB92368CD
:1041200023F0200323601023A6E72448E4E7154684
:10413000BDE72B682668181D6169286035061B6875
:1041400001D5196002E07006FBD5198000231546E1
:104150002361BCE72B6800211A1D2A601D68626874
:10416000284600F07DF908B1401B60606368236158
:10417000002384F84330AAE72A464946404623698B
:10418000D0470130ADD023689B0713D4E068039B70
:104190009842B8BF1846A6E7012332464946404632
:1041A000D04701309DD00135E36803995B1AAB42DB
:1041B000F2DCEBE7002504F11906F5E710510008E1
:1041C0002151000800000000000000000000000075
:1041D0008A89F8B5054610070C4657D44B68002B62
:1041E00004DC0B6C002B01DC0020F8BDE66A002E1D
:1041F000FAD0002312F480522F68216A2B6032D04B
:10420000606DA3895A0705D56368C01A636B0BB14B
:10421000236CC01A00230246E66A2846216AB0478A
:10422000431CA38906D129681D292BD8284A0A4195
:10423000D60727D4002262602269D904226004D5FF
:10424000421C01D12B6803B96065616B2F600029A6
:10425000CAD004F14403994202D02846FFF780FCFB
:1042600000206063C1E701232846B047411CC8D144
:104270002B68002BC5D01D2B01D0162B01D12F6030
:10428000B2E7A38943F04003A381AEE70F69002F93
:10429000AAD0930718BF00230E6808BF4B69F61B0E
:1042A0000F608B60002E9FDD33463A462846216A18
:1042B000D4F828C0E047002806DCA3894FF0FF307F
:1042C00043F04003A38190E70744361AEAE700BFB2
:1042D000FEFFBFDF00000000000000000000000043
:1042E00038B50B6905460C4613B90025284638BD7C
:1042F00018B1036A0BB9FFF723FAB4F90C30002B9D
:10430000F3D0626ED00704D4990502D4A06DFFF7F4
:10431000E7FB28462146FFF75BFF636E0546DA0799
:10432000E4D4A3899B05E1D4A06DFFF7E1FBDDE7B1
:10433000F8B50E461446054618B1036A0BB9FFF7E7
:10434000FFF9A369A360A3891A0725D523691BB3C5
:1043500023682269F6B2981A63693746834204DCFF
:1043600021462846FFF7BCFFE0B9A368013BA360E4
:1043700023685A1C22601E706269431C9A4204D052
:10438000A389DB0706D50A2E04D121462846FFF76C
:10439000A7FF38B93846F8BD2146284600F008F88E
:1043A0000028D5D04FF0FF37F4E7000000000000F0
:1043B00038B52A4B054618680C4618B1036A0BB984
:1043C000FFF7BEF9A389B4F90C20180722D4D90647
:1043D00007D409232B6042F040034FF0FF30A38144
:1043E00034E0580712D5616B41B104F1440399429E
:1043F00002D02846FFF7B4FB00236363A38923F0B0
:104400002403A3810023636023692360A38943F00D
:104410000803A38123694BB9A38903F42073B3F57F
:10442000007F03D02146284600F052F8A089B4F955
:104430000C2010F001030AD00023A36063695B42E3
:10444000A361236943B910F08000C4D138BD81074E
:1044500058BF6369A360F4E70020F7E7840C0020ED
:10446000034610B5C9B202449342184601D1002058
:1044700003E0047801338C42F6D110BD0000000047
:1044800070B50C46B1F90E10154600291E4696B0BF
:104490000CDAA389002113F0800F0CBF4FF4806366
:1044A0004023002031602B6016B070BD6A4600F0DA
:1044B0004FF80028EDDB019901F47041A1F500539C
:1044C000594259414FF48063EBE7000000000000BF
:1044D0008B8973B59D0706460C4607D504F1470343
:1044E000236023610123636102B070BD6A4601ABA2
:1044F000FFF7C6FF009905463046FEF741FF48B971
:10450000B4F90C309A05EFD423F0030343F002030F
:10451000A381E3E7A389206043F08003A381009B8C
:1045200020616361019B5BB13046B4F90E1000F06D
:1045300027F828B1A38923F0030343F00103A381E3
:10454000A3891D43A581CFE7000000000000000003
:1045500038B50023064D0446084611462B60FDF78A
:1045600007FD431C02D12B6803B1236038BD00BF97
:104570008022002000000000000000000000000079
:1045800038B50023054D044608462B60FDF700FDB5
:10459000431C02D12B6803B1236038BD8022002068
:1045A000FEE700BF00000000000000000000000067
:1045B0002DE9F047089E0D4604468E46002B4CD14F
:1045C0008A42944667D9B2FA82F353B102FA03FCE5
:1045D000C3F1200201FA03FE20FA02F242EA0E0EB3
:1045E0009C404FEA1C47BEFBF7F11FFA8CF507FB16
:1045F00011EE01FB05F0220C42EA0E4290420AD96C
:104600001CEB020201F1FF3E80F01981904240F262
:10461000168102396244121AB2FBF7F007FB10222E
:1046200000FB05F5A4B244EA0244A5420AD91CEBFA
:10463000040400F1FF3280F00481A54240F20181C0
:104640006444023840EA01400021641B1EB1DC4092
:104650000023C6E90043BDE8F0878B4208D9002E4D
:1046600000F0EA800021C6E900050846BDE8F087B1
:10467000B3FA83F1002948D1AB4202D3824200F25F
:10468000F880841A65EB030201209646002EE2D0E2
:10469000C6E9004EDFE702B9FFDEB2FA82F3002B73
:1046A00040F08E80881A0121170C1FFA82FEB0FBA1
:1046B000F7F507FB1500220C42EA00420EFB05F05D
:1046C000904208D91CEB020205F1FF3802D2904259
:1046D00000F2CC804546121AB2FBF7F007FB10221D
:1046E0000EFB00FEA4B244EA0244A64508D91CEB26
:1046F000040400F1FF3202D2A64500F2B480104655
:10470000A4EB0E0440EA0540A0E7C1F120078B406E
:1047100022FA07FC4CEA030C25FA07FA4FEA1C4977
:10472000BAFBF9F88D4020FA07F309FB18AA1FFA23
:104730008CFE2B4300FA01F508FB0EF01C0C44EA3A
:104740000A44A04202FA01F20BD91CEB040408F15E
:10475000FF3A80F08680A04240F28380A8F10208F0
:104760006444241A98B2B4FBF9F309FB134403FB25
:104770000EFE40EA0444A64508D91CEB040403F1EC
:10478000FF306AD2A64568D9023B644443EA084038
:10479000A0FB0293A4EB0E049C42C8469E4654D351
:1047A00051D0002E67D0B5EB080364EB0E04CB406C
:1047B00004FA07F71F43CC40C6E9007400214AE71A
:1047C00002FA03FCC3F12000C1409D4024FA00F02E
:1047D0004FEA1C472843B1FBF7F507FB15111FFAF9
:1047E0008CFE020C42EA014205FB0EF1914204FAF2
:1047F00003F408D91CEB020205F1FF382FD29142D5
:104800002DD9023D6244521AB2FBF7F107FB112287
:1048100080B240EA024001FB0EF2824208D91CEB52
:10482000000001F1FF3816D2824214D902396044E7
:10483000801A41EA05413AE7314630460BE77146B6
:10484000E9E61046FEE64D45ABD2B9EB020863EB54
:104850000C0E0138A5E74146EAE7034696E74546D0
:10486000D1E7D0467DE76444023849E7023D62441F
:1048700031E708460AE73146EDE600BF00000000D8
:104880000000000000000000010203040607080900
:10489000000000000102030400000000000000000E
:1048A0005356233600000000000000000000000006
:1048B00053562337000000000000000000000000F5
:1048C00053562338000000000000000000000000E4
:1048D00053562339000000000000000000000000D3
:1048E000535623313000000000000000000000009B
:1048F000535623313100000000000000000000008A
:1049000041636B2025640D0A0000000000000000D8
:10491000737461636B206F766572666C6F770000ED
:10492000556E68616E646C65642025530D0000004F
:10493000202C00000000000000000000000000002B
:104940005356233400000000000000000000000067
:104950005356233500000000000000000000000056
:1049600050696E53656E736F727300000000000033
:1049700055617274527800000000000000000000D1
:104980006E6F6E616D6500000000000000000000A9
:104990006368537973556E6C6F636B0000000000A1
:1049A00054696E77690000000000000000000000FC
:1049B000456E746572696E6720736C6565700D0075
:1049C00053562331000000000000000000000000EA
:1049D0004368617267696E670D00000000000000A7
:1049E0000D486172644661756C740D000000000032
:1049F000566563746F7235380000000000000000D7
:104A0000566563746F7235430000000000000000BB
:104A1000566563746F7236300000000000000000BD
:104A2000566563746F7236340000000000000000A9
:104A3000566563746F723638000000000000000095
:104A4000566563746F723943000000000000000077
:104A5000566563746F72453000000000000000006E
:104A600069646C650032303234303730375F31354D
:104A7000353400537461666657696E6773000D259F
:104A8000532025530D00414842467265713D2575FE
:104A90004D487A3B2041504231467265713D257543
:104AA0004D487A3B2041504232467265713D257532
:104AB0004D487A0D004C6564436E743A2025750D9F
:104AC00000546F74616C42797465436E743A2025AA
:104AD000750D00766563746F723A3A5F4D5F646579
:104AE0006661756C745F617070656E6400564261DA
:104AF000743A2025756D563B2050657263656E745F
:104B00003A2025750D0044697363686172676564B6
:104B10003A20566261743D2575206D560D0050692E
:104B20006E670056657273696F6E00536574416CF1
:104B30006C00706172616D7300556E68616E646CBB
:104B40006564204D73672025750D00030406080C6D
:104B500010182030000000000000000000000000DD
:104B60000A000000000000000A0000000100000030
:104B70000A0000000000000000000000000000002B
:104B8000091100000000000000000000000000000B
:104B90000410640AA00F5A0A3C0F500A0A0F460577
:104BA000D80E3C05C40E32029C0E2804740E1E045E
:104BB000560E1403380E0A03000000000000000027
:104BC0000000000000000000B10D0008E10B00082B
:104BD000810C000800000000000000000000000040
:104BE0000000000000000000A1100008000000000C
:104BF000000000000000000061080008311D0008EE
:104C000011080008910A000851120008F11A000862
:104C100070FEFFFF0000000051080008A10A000814
:104C20006CFEFFFF00000000111B0008711200085D
:104C30006368537973556E6C6F636B0000000000FE
:104C4000636853636857616B6575705300000000BB
:104C500063685654446F52657365744900000000E0
:104C60006368537973556E6C6F636B0000000000CE
:104C7000636853636852656164794168656164493A
:104C80000000000000000000000000000000000024
:104C9000636854696D654164645800000000000059
:104CA000636854696D654164645800000000000049
:104CB0007374536574416C61726D000000000000F4
:104CC00063685468644372656174655374617469A0
:104CD0006300000000000000000000000000000071
:104CE0006368546864437265617465000000000085
:104CF0006368537973556E6C6F636B00000000003E
:104D0000646D6153747265616D416C6C6F634900D1
:104D1000636853636852656164794900000000006C
:104D2000636853656D5369676E616C4900000000EC
:104D300063685654446F5469636B49000000000077
:104D400063685654446F53657449000000000000C6
:104D500073745374617274416C61726D0000000071
:104D6000636853656D5761697454696D656F7574D7
:104D700053000000000000000000000000000000E0
:104D8000636854686445786974530000000000004B
:104D90000060024008600240010000000000000BBB
:104DA000006002401C600240020000000004010C90
:104DB0000060024030600240040000000008020D64
:104DC000006002404460024008000000000C030E36
:104DD0000060024058600240100000000010040F04
:104DE000006002406C6002402000000000140510CA
:104DF0000060024080600240400000000018061180
:104E00006D61696E00160030040228080C10141839
:104E10001C20210000000000000000000000000035
:104E2000D0550008882200208822002088220020F7
:104E3000D055000800000000000000000000000045
:104E4000D055000800000000000000000000000035
:104E5000D055000800000000000000000000000025
:104E6000D055000800000000000000000000000015
:104E7000D055000800000000000000000000000005
:104E8000D0550008000000000000000000000000F5
:104E9000D0550008000000000000000000000000E5
:104EA0005245454E54206D616C6C6F632073756381
:104EB000636565646564002F486F73742F686F6D58
:104EC000652F696C672F576F726B2F61726D2D6E36
:104ED0006F6E652D656162692D6763632D31312EBB
:104EE000332E312D312E312F6C696E75782D783639
:104EF000342F736F75726365732F6E65776C69629B
:104F00002D63796777696E2F6E65776C69622F6C98
:104F10006962632F7374646C69622F72616E646F6F
:104F20006D2E630000000000000000000000000083
:104F30000020202020202020202028282828282069
:104F40002020202020202020202020202020202061
:104F500020881010101010101010101010101010C9
:104F600010040404040404040404041010101010B9
:104F70001010414141414141010101010101010183
:104F800001010101010101010101010110101010D5
:104F90001010424242424242020202020202020255
:104FA00002020202020202020202020210101010A9
:104FB00020000000000000000000000000000000D1
:104FC00000000000000000000000000000000000E1
:104FD00000000000000000000000000000000000D1
:104FE00000000000000000000000000000000000C1
:104FF00000000000000000000000000000000000B1
:1050000000000000000000000000000000000000A0
:105010000000000000000000000000000000000090
:105020000000000000000000000000000000000080
:105030000000000000000000000000000000000070
:105040002F486F73742F686F6D652F696C672F57CA
:105050006F726B2F61726D2D6E6F6E652D65616263
:10506000692D6763632D31312E332E312D312E3171
:105070002F6C696E75782D7836342F736F75726367
:1050800065732F6E65776C69622D63796777696EDA
:105090002F6E65776C69622F6C6962632F7374720F
:1050A000696E672F737472746F6B2E63000000005B
:1050B0002C2066756E6374696F6E3A20006173739D
:1050C000657274696F6E2022257322206661696C97
:1050D00065643A2066696C6520222573222C206C59
:1050E000696E65202564257325730A0000000000A1
:1050F000232D302B2000686C4C00656667454647C1
:10510000000000000000000000000000000000009F
:1051100030313233343536373839414243444546ED
:105120000030313233343536373839616263646583
:02513000660017
:04513400F8B500BF0B
:04513800F8B500BF07
:08513C0074F4FF7F0100000084
:105148000100000092492400924926009249340047
:10515800924936009249A4009249A6009249B400A7
:105168009249B600924D2400924D2600924D34008B
:10517800924D3600924DA400924DA600924DB40077
:10518800924DB60092692400926926009269340013
:10519800926936009269A4009269A6009269B400E7
:1051A8009269B600926D2400926D2600926D3400CB
:1051B800926D3600926DA400926DA600926DB400B7
:1051C800926DB60093492400934926009349340010
:1051D800934936009349A4009349A6009349B40023
:1051E8009349B600934D2400934D2600934D340007
:1051F800934D3600934DA400934DA600934DB400F3
:10520800934DB6009369240093692600936934008E
:10521800936936009369A4009369A6009369B40062
:105228009369B600936D2400936D2600936D340046
:10523800936D3600936DA400936DA600936DB40032
:10524800936DB6009A4924009A4926009A49340079
:105258009A4936009A49A4009A49A6009A49B40086
:105268009A49B6009A4D24009A4D26009A4D34006A
:105278009A4D36009A4DA4009A4DA6009A4DB40056
:105288009A4DB6009A6924009A6926009A693400F2
:105298009A6936009A69A4009A69A6009A69B400C6
:1052A8009A69B6009A6D24009A6D26009A6D3400AA
:1052B8009A6D36009A6DA4009A6DA6009A6DB40096
:1052C8009A6DB6009B4924009B4926009B493400EF
:1052D8009B4936009B49A4009B49A6009B49B40002
:1052E8009B49B6009B4D24009B4D26009B4D3400E6
:1052F8009B4D36009B4DA4009B4DA6009B4DB400D2
:105308009B4DB6009B6924009B6926009B6934006D
:105318009B6936009B69A4009B69A6009B69B40041
:105328009B69B6009B6D24009B6D26009B6D340025
:105338009B6D36009B6DA4009B6DA6009B6DB40011
:105348009B6DB600D2492400D2492600D2493400C8
:10535800D2493600D249A400D249A600D249B400A5
:10536800D249B600D24D2400D24D2600D24D340089
:10537800D24D3600D24DA400D24DA600D24DB40075
:10538800D24DB600D2692400D2692600D269340011
:10539800D2693600D269A400D269A600D269B400E5
:1053A800D269B600D26D2400D26D2600D26D3400C9
:1053B800D26D3600D26DA400D26DA600D26DB400B5
:1053C800D26DB600D3492400D3492600D34934000E
:1053D800D3493600D349A400D349A600D349B40021
:1053E800D349B600D34D2400D34D2600D34D340005
:1053F800D34D3600D34DA400D34DA600D34DB400F1
:10540800D34DB600D3692400D3692600D36934008C
:10541800D3693600D369A400D369A600D369B40060
:10542800D369B600D36D2400D36D2600D36D340044
:10543800D36D3600D36DA400D36DA600D36DB40030
:10544800D36DB600DA492400DA492600DA49340077
:10545800DA493600DA49A400DA49A600DA49B40084
:10546800DA49B600DA4D2400DA4D2600DA4D340068
:10547800DA4D3600DA4DA400DA4DA600DA4DB40054
:10548800DA4DB600DA692400DA692600DA693400F0
:10549800DA693600DA69A400DA69A600DA69B400C4
:1054A800DA69B600DA6D2400DA6D2600DA6D3400A8
:1054B800DA6D3600DA6DA400DA6DA600DA6DB40094
:1054C800DA6DB600DB492400DB492600DB493400ED
:1054D800DB493600DB49A400DB49A600DB49B40000
:1054E800DB49B600DB4D2400DB4D2600DB4D3400E4
:1054F800DB4D3600DB4DA400DB4DA600DB4DB400D0
:10550800DB4DB600DB692400DB692600DB6934006B
:10551800DB693600DB69A400DB69A600DB69B4003F
:10552800DB69B600DB6D2400DB6D2600DB6D340023
:10553800DB6D3600DB6DA400DB6DA600DB6DB4000F
:10554800DB6DB60088220020740E00000E010000FA
:105558001C0200002D00000064000000750000001F
:105568007A000000120000000400000000000000A3
:105578000300000044210020000000004421002016
:10558800AC210020142200200000000000000000D0
:105598000000000000000000000000000000000003
:1055A80000000000000000000000000000000000F3
:1055B80000000000000000000000000000000000E3
:0855C80000000000380C002077
:04000005080002717C
:00000001FF
